:020000040000FA
:060000000A128A11F92F1B
:100E2800F00070088312031393000800831603135D
:100E3800141C1F2F202F1A2F8312031313080800C6
:100E48008316031394131413831203131416F03028
:100E58009405941683160313871287110800C73068
:100E6800F100362FF10B352F392F3A2F00300A12A7
:100E78008A1114270A128A118230F200DD30F1003B
:100E8800F10B442FF20B442F492F08001930831619
:100E98000313990018128312031398178316031368
:100EA800871707138312031318168316031398164C
:100EB8001815831203131813831603178711683044
:100EC800F500E430F400F40B672FF50B672F0000F2
:100ED800080083160313141C722F732F6D2FC7304D
:100EE800F000762FF00B752F792F7A2F0A128A11BE
:100EF8001A270A128A11F0007008F700C730F000AC
:100F0800852FF00B842F882F892F83160313141035
:100F1800C730F0008F2FF00B8E2F922F932F0800E1
:100F2800831603130F088F3960388F008F110F1144
:100F38008F100F1483160317880189018316031372
:100F480087120716871105128601880185108312FA
:100F58000313850186018701880189010030F300A8
:100F68000030F2002530F1008030F0000A128A11BA
:100F78004A270A128A110A128A1124270A128A1188
:100F88000A128A1133270A128A110A128A116D2746
:100F98000A128A117703031DD22FD32FE12F0A12C9
:100FA8008A1133270A128A110A128A116D270A1226
:100FB8008A11770883120313880002307706031D0D
:100FC800E62FE72FC42F0A128A1133270A128A1133
:100FD8000A128A116D270A128A11770883120313DD
:100FE8008600C42F0A128A110028F601F701F801B9
:080FF80083010A128A11942FF3
:04400E00C4E0FFFF0C
:00000001FF
