:020000040000FA
:060000000A128A11F92F1B
:100ECC00F3007308831203139300080083160313B3
:100EDC00141C712F722F6C2F83120313130808002C
:100EEC008316031394131413831203131416F03084
:100EFC009405941683160313871287110800C730C4
:100F0C00F400882FF40B872F8B2F8C2F8312031355
:100F1C0008080A128A1166270A128A118230F50013
:100F2C00DD30F400F40B982FF50B982F9D2F080053
:100F3C0083160313141CA32FA42F9E2FC730F3006A
:100F4C00A72FF30BA62FAA2FAB2F0A128A116C27EF
:100F5C000A128A11F3007308F100C730F300B62FA0
:100F6C00F30BB52FB92FBA2F831603131410C730F8
:100F7C00F300C02FF30BBF2FC32FC42F0800831611
:100F8C0003130F088F3960388F008F110F118F10DA
:100F9C000F14831603178801890183160313871214
:100FAC00071687110512860185108312031385011C
:100FBC0086018701880189010A128A1176270A1293
:100FCC008A110A128A1185270A128A110A128A11A9
:100FDC009E270A128A117108831203138600E72FC9
:100FEC000A128A110028F001F101F20183010A12A0
:040FFC008A11C52F62
:04400E00C4E0FFFF0C
:00000001FF
