:020000040000FA
:060000000A128A11F72F1D
:100E3400F000700883120313930008008312031355
:100E44008C1E252F262F202F1A0808008316031323
:100E5400141C2D2F2E2F282F831203131308080080
:100E64008316031394131413831203131416F0300C
:100E74009405941683160313871287110800F00053
:100E840083160313981C472F482F422F83120313F2
:100E94000C1E4D2F4E2F502F700899000800F300A0
:100EA40073080A128A1141270A128A118230F20049
:100EB400DD30F100F10B5C2FF20B5C2F612F080089
:100EC400831203138C1E672F682F792F0A128A113D
:100ED40020270A128A11F0007008F8008230F1000D
:100EE400DD30F000F00B742FF10B742F792F080014
:100EF40019308316031399001812831203139817D9
:100F04008316031387170713831203131816831604
:100F14000313981618158312031318138316031753
:100F240087116830F500E430F400F40B972FF50BCB
:100F3400972F00000800831603130F088F396038B9
:100F44008F008F110F118F100F1483160317880150
:100F54008901831603138712071687110512860168
:100F64008801851083120313850186018701880196
:100F740089010030F3000030F2002530F1008030A8
:100F8400F0000A128A117A270A128A110A128A11A7
:100F940032270A128A110D30F700FB30F600F60BE7
:100FA400D12FF70BD12FD62F00300A128A111A270E
:100FB4000A128A110A128A1128270A128A11F600C3
:100FC4007608FB000A128A1162270A128A117B082A
:100FD4000A128A1151270A128A11780883120313FC
:100FE4008600CD2F0A128A110028F801F901FA01AE
:0C0FF400FB01FC0183010A128A119D2FF1
:04400E00C4E0FFFF0C
:00000001FF
