:020000040000FA
:060000000A128A11F92F1B
:100EFC00F00083160313981C842F852F7F2F8312E9
:100F0C0003130C1E8A2F8B2F8D2F7008990008004D
:100F1C0007300A128A117E270A128A113330F30025
:100F2C00BB30F200DF30F100F10B9A2FF20B9A2F4D
:100F3C00F30B9A2FA12F8E2F080019308316031351
:100F4C00990018128312031398178316031387172B
:100F5C000713831203131816831603139816181508
:100F6C008312031318138316031787116830F500C7
:100F7C00E430F400F40BC02FF50BC02F0000080078
:100F8C00831603130F088F3960388F008F110F11E0
:100F9C008F100F148316031788018901831603130E
:100FAC008712071687110512860185108312031309
:100FBC00850186018701880189010030F30000302A
:100FCC00F2002530F1008030F0000A128A11A327BC
:100FDC000A128A110A128A118E270A128A11F02F0C
:100FEC000A128A110028F601F701F80183010A128E
:040FFC008A11C62F61
:04400E00C4E0FFFF0C
:00000001FF
