:020000040000FA
:060000000A128A11F72F1D
:100D8800F000700883120313930008008312031302
:100D98008C1ECF2ED02ECA2E1A08080083160313D5
:100DA800141CD72ED82ED22E831203131308080032
:100DB8008316031394131413831203131416F030B9
:100DC8009405941683160313871287110800F00000
:100DD80083160313981CF12EF22EEC2E83120313A4
:100DE8000C1EF72EF82EFA2E700899000800F30052
:100DF80073080A128A11EB260A128A118230F2004D
:100E0800DD30F100F10B062FF20B062F0B2F080037
:100E1800C730F1000F2FF10B0E2F122F132F0030B8
:100E28000A128A11C4260A128A118230F200DD30B1
:100E3800F100F10B1D2FF20B1D2F222F080083123A
:100E480003138C1E282F292F3A2F0A128A11CA261B
:100E58000A128A11F0007008F6008230F100DD30C5
:100E6800F000F00B352FF10B352F3A2F0800193011
:100E78008316031399001812831203139817831605
:100E88000313871707138312031318168316031304
:100E9800981618158312031318138316031787114E
:100EA8006830F500E430F400F40B582FF50B582F98
:100EB8000000080083160313141C632F642F5E2F91
:100EC800C730F000672FF00B662F6A2F6B2F0A12BE
:100ED8008A11D2260A128A11F0007008F900C73068
:100EE800F000762FF00B752F792F7A2F83160313C6
:100EF8001410C730F000802FF00B7F2F832F842F22
:100F08000800831603130F088F3960388F008F117C
:100F18000F118F100F148316031788018901831688
:100F28000313871207168711051286018801851099
:100F38008312031385018601870188018901003026
:100F4800F3000030F2002530F1008030F0000A1282
:100F58008A113B270A128A110A128A11DC260A1200
:100F68008A110A128A110C270A128A110A128A1186
:100F78005E270A128A117903031DC32FC42FB52FC8
:100F88000A128A110C270A128A110A128A115E277C
:100F98000A128A1179088312031388000A128A1127
:100FA80023270A128A1101300A128A11FB260A1213
:100FB8008A117603031DE12FE22FED2F0A128A1101
:100FC80023270A128A1100300A128A11FB260A12F4
:100FD8008A1179080A128A11FB260A128A11B52F7A
:100FE8000A128A110028F601F701F801F901FA013D
:080FF80083010A128A11852F02
:04400E00C4E0FFFF0C
:00000001FF
