:020000040000FA
:060000000A128A110C280F
:10000800FE00030EF7000A08F8000A128A112129D7
:100018000A128A110F2883133930FD000130FE00BF
:100028000830FF00203084000A128A113A210A128F
:100038008A11F001F101F201F301F401F501F60171
:1000480083010A128A11A8288312031386182D28FF
:100058002E283B280618312832283B28F401F40AB8
:10006800C730FB003728FB0B36283A283B28831279
:100078000313061C402841285B287403031D4528E8
:1000880046285B280930760203184B284C285B2841
:10009800F4010130FB007B08F60709307606031DE2
:1000A800562857285B280830FB007B08F600861C7A
:1000B8005E285F2873287403031D63286428732847
:1000C80009307602031869286A287328F401013078
:1000D800F6027608031D712872287328F601C730C6
:1000E800FB007628FB0B752879287A2883120313DE
:1000F8009F187F28802881289F141E08FB007B08F2
:10010800F5007608303E840083130008FB007B0866
:10011800F300730885007508FB007B08F10075087B
:10012800FB007B08F0000A128A115C210A128A116E
:100138000A128A1149210A128A110A128A11E72021
:100148000A128A1128280800831603130F088F390A
:1001580060388F008F110F118F100F148B178B16AB
:100168000B15811201128111F830810504308312B8
:1001780003138100831603138117011385012330AC
:1001880086008701880189018316031788012030BA
:1001980089008312031388018501860188011F17CE
:1001A8009F131F159F111F169F161F1483160313E5
:1001B8009F131F129F120A128A1128200A128A11ED
:1001C8000A128A110C288312031387010810881059
:1001D8007208031DF028F128FA287108203E8400CF
:1001E8008313000887000814881007297203031D69
:1001F800FE28FF2807297008203E84008313000882
:100208008700081088140800773441343B346B3475
:100218004D346E347E3447347F346F345F347C34ED
:10022800383479343E341E3400340134033407340E
:100238000F341F343F347F34FF340B1D2429252904
:100248002F290A128A116F210A128A110B11043000
:1002580083120313810078088A00770E8300FE0E4C
:100268007E0E09007E088A007F0882000A128A1121
:1002780036210A128A118000840A04087D060319AF
:100288000034FF0A0319FE0A3A2975080F39F900E4
:100298007908F1007508F90004300310F90CFF3EE5
:1002A800031D512979080F39FA007A08F00008006F
:1002B80073087502031C61296229652983120313D7
:1002C800881775087302031C6A296B296E29831223
:1002D8000313881308007208031D732974297729EA
:0A02E800F201F20A7829F201080081
:04400E00D4E0FFFFFC
:00000001FF
