:020000040000FA
:060000000A128A110C280F
:10000800FE00030EF7000A08F8000A128A11672991
:100018000A128A110F2883134930FD000030FE00B0
:10002800F430FF00203084000A128A1145210A1298
:100038008A11F001F101F201F301F401F501F60171
:1000480083010A128A112828831603130F088F398F
:1000580060388F008F110F118F100F148B178B16AC
:100068000B15811201128111F830810503308312BA
:1000780003138100831603138117011385012330AD
:1000880086008701880189018316031788012030BB
:1000980089008312031388018501860188011F17CF
:1000A8009F131F159F111F169F161F1483160313E6
:1000B8009F131F129F128312031386186428652842
:1000C80073280618682869287328F401F40AC730C9
:1000D80083120313C9007028C90B6F287328831271
:1000E8000313061C7828792893287403031D7D2898
:1000F8007E289328093076020318832884289328B9
:10010800F4010130C9004908F60709307606031DD5
:100118008E288F2893280830C9004908F600861CC5
:1001280096289728AB287403031D9B289C28AB2886
:10013800093076020318A128A228AB28F40101305F
:10014800F6027608031DA928AA28AB28F601760826
:10015800403E840083130008C9004908F30073086F
:100168008500F101F001F2010A128A1154210A12E4
:100178008A110A128A11C6200A128A115F280A12E5
:100188008A110C28C730FA00C928FA0BC828CC28CD
:10019800CD28831203131F149F18D328D428D528D9
:1001A8009F141E08FA007A08F50075080F39FA003E
:1001B8007A08F1007508FA0004300310FA0CFF3EC3
:1001C800031DE1287A080F39FB007B08F00087013E
:1001D800081088100A128A111D210A128A110800B3
:1001E800E7340034813400346B340034CB340034C9
:1001F8008D340034CE3400347D34003483340034FC
:10020800EF340034CF340034AF340034EC340034ED
:1002180068340034E93400346E3400342E34003449
:1002280000340134033407340F341F343F347F342F
:10023800FF347203031D212922292F298312031356
:10024800081488107108F9007907203E8400831388
:100258000008870040297208031D332934294029E2
:1002680083120313081088147008F9007907203ED8
:10027800840083130008870008007E088A007F082E
:1002880082000A128A1141210A128A118000840A06
:1002980004087D0603190034FF0A0319FE0A4529DC
:1002A80073087502031C59295A295D2983120313FF
:1002B800881775087302031C62296329662983124B
:1002C8000313881308000A128A1178210A128A1166
:1002D8000B11033083120313810078088A00770E0C
:1002E8008300FE0E7E0E09007203031D7C297D2902
:0C02F8007F29F2018129F201F20A0800BE
:04400E00D4E0FFFFFC
:00000001FF
