:020000040000FA
:060000000A128A110C280F
:10000800FE00030EF7000A08F8000A128A113529C3
:100018000A128A110F2883133230FD000130FE00C6
:100028002330FF00203084000A128A1114210A129A
:100038008A11F001F101F201F301F401F501F60171
:1000480083010A128A112828831603130F088F398F
:1000580060388F008B170B178B160B11811201124A
:100068008111011481140115850188018316031774
:100078008801203089008312031388018501233009
:1000880086002330831603138600831203131F1779
:100098009F131F159F111F169F16831603139F1377
:1000A8001F129F120A128A11FC200A128A11831247
:1000B80003138618602861287028061864286528A4
:1000C80070280130F2000030F300C730FA006C28C5
:1000D800FA0B6B286F28702883120313061C7528E7
:1000E8007628A52872037304031D7B287C28A5287D
:1000F8000030750209300319740203188428852812
:10010800A528F201F3010130F4070318F50A0030BD
:10011800F507093074067504031D93289428982858
:100128000830F4000030F5007408FA007A07203E21
:10013800840083130008F000840A0008F1007008A6
:100148008500861CA828A928D72872037304031DD4
:10015800AE28AF28D7280030750209300319740279
:100168000318B728B828D728F201F3010130F402A0
:100178000030031CF503F502740A031DC728750A2D
:10018800031DC728C828CA28F401F5017408FA0015
:100198007A07203E840083130008F000840A0008D0
:1001A800F100700885001E08FA00FB0175087B0243
:1001B800031DE02874087A02031CE328E428562863
:1001C80080308800740AFA001E08FB00FC01EF2842
:1001D8000310FB0DFC0DFA0BEC287B087C040319BB
:1001E800F628F7285628880156280A128A110C285A
:1001F800C730F900FF28F90BFE28022903298312CA
:1002080003131F149F1809290A290B299F141E0874
:10021800F9007908F60008007E088A007F08820045
:100228000A128A1110210A128A118000840A04080D
:100238007D0603190034FF0A0319FE0A1429003445
:1002480000340134003403340034073400340F34EC
:1002580000341F3400343F3400347F340034FF341A
:1002680000340B1D382939293F290B110B11043093
:1002780083120313810078088A00770E8300FE0E2C
:040288007E0E0900DD
:04400E00D4E0FFFFFC
:00000001FF
