:020000040000FA
:060000000A128A11E82F2C
:100F0C00003400340134003403340034073400342A
:100F1C000F3400341F3400343F3400347F34003439
:100F2C00FF340034C730F6009B2FF60B9A2F9E2F00
:100F3C009F2F831203131F149F18A52FA62FA72FC3
:100F4C009F141E088500982F08007E088A007F08D1
:100F5C0082000A128A11AB270A128A118000840AB5
:100F6C0004087D0603190034FF0A0319FE0AAF2F8B
:100F7C00831603130F088F3960388F008501831691
:100F8C000317880120308900831203138501233055
:100F9C0086002330831603138600831203131F1756
:100FAC009F131F159F111F169F16831603139F1354
:100FBC001F129F120A128A1198270A128A110A12FA
:100FCC008A11002883133230FD000730FE00863072
:100FDC00FF00203084000A128A11AF270A128A11EE
:100FEC00F001F101F201F301F401F50183010A12A0
:040FFC008A11BE2F69
:04400E00D4E0FFFFFC
:00000001FF
