:020000040000FA
:060000000A128A110C280F
:10000800FE00030EF4000A08F5000A128A110629F8
:100018000A128A110F2883132930FD000130FE00CF
:100028001730FF00203084000A128A11E4200A12D7
:100038008A11F001F101F201F30183010A128A1118
:100048002528831603130F088F3960388F008B1704
:100058000B178B160B1181120112811101148114D7
:10006800011585018801831603178801203089004E
:100078008312031388018501860123308316031335
:100088008600831203131F179F131F159F111F1636
:100098009F16831603139F131F129F120A128A11A9
:1000A800CC200A128A110A128A11F3200A128A1124
:1000B800831203138618612862286F28061865289A
:1000C80066286F28F101F10AC730F7006B28F70B93
:1000D8006A286E286F280A128A11F3200A128A11D8
:1000E80083120313061C79287A28A5287103031D97
:1000F8007E287F28A52809307302031884288528BC
:10010800A528F1010130F7007708F30709307306D5
:10011800031D8F28902894280830F7007708F300EB
:100128007308203E840083130008F7007708F00066
:100138000A128A11F3200A128A1170088312031313
:100148008500861CA828A92852287103031DAD28FC
:10015800AE285228093073020318B328B42852284D
:10016800F1010130F3027308203E84008313000874
:10017800F7007708F0000A128A11F3200A128A1190
:10018800700883120313850052280A128A110C285A
:10019800C730F600CF28F60BCE28D228D3288312F2
:1001A80003131F149F18D928DA28DB289F141E0868
:1001B800F6007608F20008007E088A007F088200B0
:1001C8000A128A11E0200A128A118000840A04089F
:1001D8007D0603190034FF0A0319FE0AE428700893
:1001E8007202031CF828F928FC28831203138817C5
:1001F80072087002031C01290229052983120313BE
:10020800881308000B1D09290A2910290B110B1145
:10021800043083120313810075088A00740E83006A
:10022800FE0E7E0E09000034003401340334073416
:080238000F341F343F347F3402
:04400E00D4E0FFFFFC
:00000001FF
