:020000040000FA
:060000000A128A110C280F
:10000800FE00030EF8000A08F9000A128A114B29AB
:100018000A128A110F2883133230FD000130FE00C6
:100028003930FF00203084000A128A112A210A126E
:100038008A11F001F101F201F301F401F501F60171
:10004800F70183010A128A112928831603130F085E
:100058008F3960388F008B170B178B160B11811295
:10006800011281110114811401158501880183167B
:100078000317880120308900831203138801850142
:1000880086012330831603138600831203131F1778
:100098009F131F159F111F169F16831603139F1377
:1000A8001F129F120A128A110F210A128A110A12AC
:1000B8008A11F3200A128A118312031386186528FD
:1000C80066287528061869286A2875280130F200FC
:1000D8000030F300C730FC007128FC0B702874282E
:1000E80075280A128A11F3200A128A11831203133F
:1000F800061C7F288028B62872037304031D8528F0
:100108008628B628003077020930031976020318CA
:100118008E288F28B628F201F3010130F60703185C
:10012800F70A0030F707093076067704031D9D2883
:100138009E28A2280830F6000030F7007608FC0058
:100148007C07203E840083130008F000840A00081E
:10015800F1000A128A11F3200A128A117008831218
:1001680003138500861CB928BA285628720373041D
:10017800031DBF28C028562800307702093003190C
:1001880076020318C828C9285628F201F30101305D
:10019800F6020030031CF703F702760A031DD8287D
:1001A800770A031DD828D928DB28F601F701760835
:1001B800FC007C07203E840083130008F000840ABA
:1001C8000008F1000A128A11F3200A128A11700835
:1001D80083120313850056280A128A110C28750801
:1001E8007102031DF92874087002031CFC28FD28FD
:1001F8000129FF3083120313880071087502031D5B
:10020800072970087402031C0A290B290E29831276
:10021800031388010800C730FA001229FA0B1129C4
:1002280015291629831203131F149F181C291D2929
:100238001E299F141E08FA00FB017A08F4007B08A7
:10024800F50008007E088A007F0882000A128A11D9
:1002580026210A128A118000840A04087D060319DF
:100268000034FF0A0319FE0A2A2900340034013435
:10027800003403340034073400340F3400341F349E
:1002880000343F3400347F340034FF3400340B1D15
:100298004E294F2955290B110B11043083120313D2
:1002A800810079088A00780E8300FE0E7E0E090010
:04400E00D4E0FFFFFC
:00000001FF
