:020000040000FA
:060000000A128A110C280F
:10000800FE00030EF7000A08F8000A128A1189296F
:100018000A128A110F2883133930FD000130FE00BF
:100028004A30FF00203084000A128A1167210A1220
:100038008A11F001F101F201F301F401F501F60171
:1000480083010A128A1128280A128A1113210A1216
:100058008A11F201831603130F088F3960388F0055
:100068008B170B178B160B118112011281110114BA
:10007800811401158117011385012330860087013A
:1000880088018901831603178801203089008312AB
:10009800031388018501860188011F179F131F1507
:1000A8009F111F169F16831603139F131F129F126B
:1000B8000A128A1113210A128A110A128A11762148
:1000C8000A128A118312031386186B286C28792860
:1000D80006186F2870287928F401F40AC730FB0045
:1000E8007528FB0B7428782879280A128A1176213A
:1000F8000A128A1183120313061C83288428AF2846
:100108007403031D88288928AF280930760203184C
:100118008E288F28AF28F4010130FB007B08F607F2
:1001280009307606031D99289A289E280830FB0076
:100138007B08F6007608303E840083130008FB0035
:100148007B08F3000A128A1176210A128A117308B1
:10015800831203138500861CB228B3285C28740315
:10016800031DB728B8285C28093076020318BD2873
:10017800BE285C28F4010130F6027608303E84007F
:1001880083130008FB007B08F3000A128A1176210A
:100198000A128A1173088312031385005C280A1255
:1001A8008A110C287203031DDA28DB28F42883122D
:1001B80003130708031DE128E228F4280818E52896
:1001C800E628F4288818E928EA28F428081488106A
:1001D8007508203E8400831300088700F201122965
:1001E8007208031DF828F928122983120313070837
:1001F800031DFF2800291229081803290429122998
:100208008818072908291229081088147508203E1B
:100218008400831300088700F201F20A0800C7303F
:10022800F9001629F90B152919291A29831203131C
:100238001F149F182029212922299F141E08F9001C
:100248007908F50075080F39F90003300310F90D26
:10025800FF3E031D2A290310790DFA007A08F100E0
:100268007508F90004300310F90CFF3E031D372907
:1002780079080F39FA007A08F00087010810881009
:100288000A128A11D6200A128A1108003F3406344D
:100298005B344F3466346D347D3407347F346F34C7
:1002A80077347C3439345E34793471340034013431
:1002B800033407340F341F343F347F34FF347E084F
:1002C8008A007F0882000A128A1163210A128A11A1
:1002D8008000840A04087D0603190034FF0A031904
:1002E800FE0A672973087502031C7B297C297F296C
:1002F80083120313881775087302031C8429852940
:1003080088298312031388130800750883120313BE
:1003180085000B110430810078088A00770E83006D
:06032800FE0E7E0E09002E
:04400E00D4E0FFFFFC
:00000001FF
