:020000040000FA
:060000000A128A110C280F
:10000800FE00030EF1000A08F2000A128A111728EE
:100018000A128A110F28F601F701F801F901830184
:100028000A128A117A28831203138C1D1C281D2892
:1000380073281412141B212822282628941F2528E7
:1000480026282D281308F0007008F70014139413BD
:10005800141683160313941A3228332850281419B7
:10006800362837285028831203131308F000700825
:10007800F7008C11141683160313141C4428452802
:100088003F28831203131308F0007008F800533058
:10009800F000F00B4D287028941A53285428702823
:1000A800141D572858287028831203131308F000CA
:1000B8007008F700831603131410790883120313CA
:1000C800930014165330F000F00B682883160313BE
:1000D80014186F2870286A28831203138C11720869
:1000E8008A00710E8300FE0E7E0E0900831603132C
:1000F8000F088F3960388F008F110F118F100F1470
:100108000A128A11FA200A128A110A128A11E420A4
:100118000A128A11C330831203139F05C730F500F2
:100128009528F50B9428982899280A128A11AC204A
:100138000A128A11790883120313860030300A12D2
:100148008A11CA200A128A118E280A128A110C28CA
:100158000D30F400FB30F300F30BB028F40BB0289B
:10016800B528831203139F149F18BB28BC28B828EE
:100178001E08F3007308F9000D30F400FB30F3009B
:10018800F30BC428F40BC428C9280800F30073082B
:1001980083160313930036308312031394008030C0
:1001A80083160313940001309100871507168B17E7
:1001B8000B17831203138C11831603138C15080075
:1001C8000130831603178800890101308316031351
:1001D800850086011830870088018901831203137E
:1001E80085018601870188018901080083160313A8
:1001F8009F131F129F12831203131F179F131F149D
:020208000800EC
:04400E00D4E0FFFFFC
:00000001FF
