:020000040000FA
:060000000A128A110C280F
:10000800FE00030EF2000A08F3000A128A11C42B3C
:100018000A128A110F28F801F90183010A128A11BC
:10002800AE2A8312031331088039B2003208BB00AC
:100038003108B2003207B3003308C200B01F2528C8
:10004800262827284214420803192B282C283C2844
:10005800420A031D3028312839280030B100003009
:10006800B0000030AF000030AE00B017B101442836
:100078000030B1000030B0000030AF000030AE00FA
:100088002D088039B2003208BB062D08B2003207AD
:10009800B3003308C300AC1F522853285428431414
:1000A80043080319582859286928430A031D5D285D
:1000B8005E2866280030AD000030AC000030AB0090
:1000C8000030AA00AC17AD0171280030AD00003037
:1000D800AC000030AB000030AA002D082C042B0423
:1000E8002A04031D7828792892280030B1000030AE
:1000F800B0000030AF000030AE008030B0047F3078
:10010800B1043B08B2003208B1043108AD00300830
:10011800AC002F08AB002E08AA00F1294208031DE5
:1001280096289728A0280030AD000030AC00003099
:10013800AB000030AA00F1294208B200B30133082D
:10014800B50043083202B400031CB50334087F3EEF
:10015800BC0035080318013E003EBD003108BA0056
:100168003008B9002F08B8002E08B7000030B100D9
:100178000030B0000030AF000030AE000030C100E9
:100188000030C0000030BF000030BE00C301162997
:1001980043080319D028D128F1280130B2000310F0
:1001A800B70DB80DB90DBA0DB20BD3280130B20096
:1001B8000310AE0DAF0DB00DB10DB20BDC28C11F91
:1001C800E628E728E8282E140130B2000310BE0DF7
:1001D800BF0DC00DC10DB20BEA282D083A02031D50
:1001E800FF282C083902031DFF282B083802031D9D
:1001F800FF282A083702031C02290329122941175C
:100208002A08B7022B08031C2B0FB8022C08031C62
:100218002C0FB9022D08031C2D0FBA020130B200B1
:100228003208C3071A304302031C1B291C29CC2897
:100238003A0839043804370403192329242943299F
:100248003E1443290130B2000310AE0DAF0DB00DBE
:10025800B10DB20B2829C11F3229332934292E1494
:100268000130B2000310BE0DBF0DC00DC10DB20BA1
:100278003629FF30BC070318BD0AFF30BD07B01F81
:10028800462947292629C301C11F4B294C2968291A
:10029800FF303E05B200FF303F05B300FF30400598
:1002A800B4007F304105B500350834043304320406
:1002B80003195F2960296329C301C30A68292E1C11
:1002C8006629672968296029430803196C296D295B
:1002D8009E290130AE07003003180130AF07003007
:1002E80003180130B007003003180130B107311C82
:1002F8007E297F299E292E08B2002F08B3003008D6
:10030800B4003108B5000130B600350DB50CB40C99
:10031800B30CB20CB60B89293508B1003408B0000B
:100328003308AF003208AE000130BC070318BD0A1D
:100338000030BD073D08803AFF0080307F02031D72
:10034800A729FF303C02031CAA29AB29B929FF3091
:1003580083120313BC000030BD000030B100003030
:10036800B0000030AF000030AE00831203133D0828
:10037800803AFF0080307F02031DC42901303C020F
:100388000318C729C829D52983120313BC01BD0145
:100398000030B1000030B0000030AF000030AE00D7
:1003A800BB01831203133C08B2003208C200421C8E
:1003B800DE29DF29E129B017E5297F30B2003208AC
:1003C800B0054208B2000310320CB3003308B10084
:1003D8003B08B2003208B1048928080083120313CD
:1003E800A40024080319F929FA290E2AF71FFD2960
:1003F800FE290E2A7409A6007509A7007609A80027
:100408007709A900A60A0319A70A0319A80A031954
:10041800A90A162A7708A9007608A8007508A7006F
:100428007408A6007708760475047404031D1D2A51
:100438001E2A272A0030F7000030F6000030F500A9
:100448000030F400AD2A9630A0002008A500392A13
:100458000130A0002008A50701300310A90CA80C42
:10046800A70CA60CFF3E031D312AFE302905031DEB
:100478003E2A3F2A2C2A5B2A0130A0002008A50723
:100488000130A607003003180130A7070030031811
:100498000130A807003003180130A9070130031004
:1004A800A90CA80CA70CA60CFF3E031D532AFF306D
:1004B8002905031D602A612A402A6D2A0130A502F8
:1004C8000130A0000310A60DA70DA80DA90DA00BC3
:1004D800662AA81B702A712A772A02302502031877
:1004E800762A772A622A25187A2A7B2A832AFF30D5
:1004F800A605FF30A7057F30A805FF30A905031022
:10050800A50C2508A000A101A201A3011830031021
:10051800A00DA10DA20DA30DFF3E031D8B2A2008DF
:10052800A6042108A7042208A8042308A90424086B
:1005380003199F2AA02AA52AF71FA32AA42AA52AB5
:10054800A9172908F7002808F6002708F500260843
:10055800F40008008316031306108312031306140D
:1005680083160313860185018312031306141030C2
:1005780083120313D1003930D0000D30CF00CF0BD8
:10058800C32AD00BC32AD10BC32A203083120313EA
:10059800900086018801013085000614861406152E
:1005A80086150616831603130813881583128F0100
:1005B8008E01831603130817023083120313CF002A
:1005C800CF0BE42A0000831603130813881DED2AB5
:1005D800EE2AEA2A831203131014831603138819C8
:1005E800F62AF72AF12A8312031310100F08D300F2
:1005F8000E08D2005208F4005308F5000030F51B2D
:10060800FF30F600F70001300A128A11F2210A12AF
:100618008A11770883120313B1007608B0007508B1
:10062800AF007408AE004230AD006B30AC0047300C
:10063800AB00AE30AA000A128A1115200A128A11DC
:10064800831203132D08C7002C08C6002B08C50009
:100658002A08C4000A128A1148230A128A1183122E
:1006680003134508D3004408D2005208013ED200C3
:1006780053080318013E003ED300520886000614B2
:10068800DA2A0A128A110C28031083120313460D62
:10069800470DC8004808CE004E08031D542B552BA3
:1006A8005E2B0030C7000030C6000030C5000030A7
:1006B800C400C32B4408C8004508C9004608CA003E
:1006C8004708CB001F300310CB0CCA0CC90CC80C50
:1006D800FF3E031D672B4808CC004C08CD00C61709
:1006E800FF30C405FF30C505FF30C6050030C7051B
:1006F8009630CE02CE1F812B822B9C2B4E08803A3F
:10070800973E0318882B892B8A2B552B0130031011
:10071800C70CC60CC50CC40CFF3E031D8B2B013047
:10072800C8004808CE07031D9A2B9B2B8A2BB32B96
:1007380020304E02031CA12BA22BAE2B552B0130CF
:10074800C8000310C40DC50DC60DC70DC80BA52BD9
:100758000130CE024E08031DB22BB32BA32B4D083C
:100768000319B72BB82BC32BC409C509C609C70978
:10077800C40A0319C50A0319C60A0319C70A0800D7
:10078800831203138C1DC92BCA2B262C1412141B7D
:10079800CE2BCF2BD32B941FD22BD32BDD2B13088F
:1007A800F000F1017008F8007108F90014139413AF
:1007B800141683160313941AE22BE32B002C141936
:1007C800E62BE72B002C831203131308F000F1012A
:1007D8007008F8007108F90083160313141CF52B30
:1007E800F62BF02B831203131308880014165330CA
:1007F800F000F00BFD2B232C941A032C042C232C33
:10080800141D072C082C232C831203131308F00043
:10081800F1017008F8007108F90083160313141029
:10082800831203130608930014165330F000F00BDC
:100838001B2C831603131418222C232C1D2C831213
:1008480003138C1173088A00720E8300FE0E7E0E4D
:02085800090095
:04400E00D1E0FFFFFF
:00000001FF
