:020000040000FA
:060000000A128A11EB2F29
:100E3000F90079088312031393000800640080010D
:100E4000840A04060319003404061F2F4730831652
:100E5000031788008901831603139F131F129F1223
:100E6000831203131F179F13C3309F051F1408001D
:100E70008316031394138312031314168316031398
:100E80001413831203131408F039053894009416D0
:100E9000831603138712871508000730FB007D3087
:100EA000FA00FA0B512FFB0B512F71080A128A110D
:100EB00018270A128A110730FB007D30FA00FA0B5E
:100EC0005F2FFB0B5F2F080083160313141C692F81
:100ED0006A2F642F0D30FA00FB30F900F90B6E2FEA
:100EE000FA0B6E2F732F831203131308F90079087E
:100EF000F2008316031314104130FA00EE30F900AB
:100F0000F90B802FFA0B802F000008000D30FA003B
:100F1000FB30F900F90B8A2FFA0B8A2F8F2F8312DF
:100F200003131F08C33904389F001F14C730F9008A
:100F3000992FF90B982F9C2F9D2F831203139F1429
:100F40009F18A32FA42FA02F1E08F9007908F100E5
:100F50000730FA007D30F900F90BAC2FFA0BAC2FFB
:100F6000F8010800831603130F088F3960388F00CB
:100F70008F110F118F100F14871207168715073066
:100F8000850086018312031385018601870188018C
:100F90008901473083160317880089010A128A11D4
:100FA00038270A128A110A128A1126270A128A1170
:100FB0000A128A1186270A128A110A128A116427D4
:100FC0000A128A110A128A114D270A128A11D82F81
:100FD0000A128A1100287030840079300A128A11AE
:100FE0001E270A128A1183132030840038300A1217
:100FF0008A111E270A128A1183010A128A11B22F3E
:04400E00C4E0FFFF0C
:00000001FF
