:020000040000FA
:060000000A128A11EB2F29
:100DCA00FA007A0883120313930008006400800172
:100DDA00840A0406031900340406EC2E47308316ED
:100DEA00031788008901831603139F131F129F128A
:100DFA00831203131F179F13C3309F051F14080084
:100E0A0083160313941383120313141683160313FE
:100E1A001413831203131408F03905389400941636
:100E2A0083160313871287150800FD000730FC009C
:100E3A007D30FB00FB0B1F2FFC0B1F2F7D080A12B6
:100E4A008A11E5260A128A110730FC007D30FB0060
:100E5A00FB0B2D2FFC0B2D2F080083160313141CDC
:100E6A00372F382F322F0D30FB00FB30FA00FA0BE8
:100E7A003C2FFB0B3C2F412F831203131308FA005C
:100E8A007A08F3008316031314101A30FB00F830A3
:100E9A00FA00FA0B4E2FFB0B4E2F00000800FC0045
:100EAA00F2010D30FB00FB30FA00FA0B5A2FFB0B54
:100EBA005A2F5F2F7C08FA00FA0DFA0D83120313DA
:100ECA001F087A06C3397A069F001F14C730FA0032
:100EDA006E2FFA0B6D2F712F722F831203139F142B
:100EEA009F18782F792F752F1E08FA007A08F200BA
:100EFA004130FB00EE30FA00FA0B812FFB0B812FF9
:100F0A0000000800831603130F088F3960388F001A
:100F1A008F110F118F100F148712071687150730BC
:100F2A008500860104308900831203138501860136
:100F3A00870188018901C730831603178800890150
:100F4A000A128A1105270A128A110A128A11F3262D
:100F5A000A128A110A128A1132270A128A110130D8
:100F6A000A128A111A270A128A1101300A128A11E0
:100F7A0054270A128A110A128A1132270A128A116E
:100F8A0072080A128A111A270A128A110A128A1177
:100F9A0032270A128A1102300A128A111A270A12F1
:100FAA008A1107300A128A1154270A128A110A1260
:100FBA008A1132270A128A1172080A128A111A270A
:100FCA000A128A11AF2F0A128A110028703084007F
:100FDA007A300A128A11EB260A128A1183132030F8
:100FEA00840038300A128A11EB260A128A11830108
:060FFA000A128A11872F84
:04400E00C4E0FFFF0C
:00000001FF
