:020000040000FA
:060000000A128A11EB2F29
:100DCC00FA007A0883120313930008006400800170
:100DDC00840A0406031900340406ED2E47308316EA
:100DEC00031788008901831603139F131F129F1288
:100DFC00831203131F179F13C3309F051F14080082
:100E0C0083160313941383120313141683160313FC
:100E1C001413831203131408F03905389400941634
:100E2C0083160313871287150800FD000730FC009A
:100E3C007D30FB00FB0B202FFC0B202F7D080A12B2
:100E4C008A11E6260A128A110730FC007D30FB005D
:100E5C00FB0B2E2FFC0B2E2F080083160313141CD8
:100E6C00382F392F332F0D30FB00FB30FA00FA0BE3
:100E7C003D2FFB0B3D2F422F831203131308FA0057
:100E8C007A08F3008316031314101A30FB00F830A1
:100E9C00FA00FA0B4F2FFB0B4F2F00000800FC0041
:100EAC00F2010D30FB00FB30FA00FA0B5B2FFB0B51
:100EBC005B2F602F7C08FA00FA0DFA0D83120313D6
:100ECC001F087A06C3397A069F001F14C730FA0030
:100EDC006F2FFA0B6E2F722F732F831203139F1425
:100EEC009F18792F7A2F762F1E08FA007A08F200B5
:100EFC000730FB007D30FA00FA0B822FFB0B822FA0
:100F0C000800831603130F088F3960388F008F1178
:100F1C000F118F100F1487120716871507308500D5
:100F2C008601043089008312031385018601870131
:100F3C0088018901C73083160317880089010A12BA
:100F4C008A1106270A128A110A128A11F4260A1229
:100F5C008A110A128A1133270A128A1101300A12D5
:100F6C008A111B270A128A1101300A128A1155277D
:100F7C000A128A110A128A1133270A128A1172086C
:100F8C000A128A111B270A128A110A128A11332794
:100F9C000A128A1102300A128A111B270A128A11AC
:100FAC0007300A128A1155270A128A110A128A115D
:100FBC0033270A128A1172080A128A111B270A1285
:100FCC008A11AF2F0A128A110028703084007A30EF
:100FDC000A128A11EC260A128A118313203084001B
:100FEC0038300A128A11EC260A128A1183010A126D
:040FFC008A11872FA0
:04400E00C4E0FFFF0C
:00000001FF
