:020000040000FA
:060000000A128A11EB2F29
:100EF80064008001840A04060319003404067D2F67
:100F080047308316031788008901831603139F133C
:100F18001F129F12831203131F179F13C3309F05BD
:100F28001F1408000D30FD00FB30FC00FC0B9A2F4D
:100F3800FD0B9A2F9F2F831203131F08C339043800
:100F48009F001F14C730FC00A92FFC0BA82FAC2F43
:100F5800AD2F831203139F149F18B32FB42FB02FF4
:100F68001E0886000730FD007D30FC00FC0BBA2F00
:100F7800FD0BBA2FFB010800831603130F088F39E6
:100F880060388F008F110F118F100F1487120716FA
:100F9800871585160730850086018312031385019E
:100FA8008601870188018901473083160317880065
:100FB80089010A128A1184270A128A110A128A11CF
:100FC80096270A128A11E22F0A128A110028703015
:100FD80084007C300A128A117C270A128A11831332
:100FE8002030840034300A128A117C270A128A11B0
:080FF80083010A128A11C02FC7
:04400E00C4E0FFFF0C
:00000001FF
