:020000040000FA
:060000000A128A11F32F21
:100CF00064008001840A0406031900340406792E76
:100D0000831603139F131F129F12831203131F17BF
:100D10009F13C3309F051F144330831603178800A9
:100D2000890108008316031394138312031314120A
:100D300014109410141594118316031314138712AE
:100D4000871583120313941608000A128A1192263B
:100D50000A128A110A128A1180260A128A11831233
:100D600003132908CB00CC014B08C2004C08C30078
:100D70002A30C4000030C5000A30C6000030C70069
:100D80000A128A11C8260A128A110A128A11002828
:100D900083120313C51FCD2ECE2EE22E2D30C80098
:100DA000420884008317431C8313480880000130E5
:100DB000C2070318C30A0030C307C409C509C40A1F
:100DC0000319C50A4208F8004308F9004508FB006A
:100DD0004408FA004708FD004608FC000A128A1180
:100DE00072270A128A110800700871040319F92E7B
:100DF000FA2E292FF501F50A082F01300310F00D06
:100E0000F10DFF3E031DFE2E0130F4007408F507BE
:100E1000F11F0B2F0C2FFD2E71087302031D122FD3
:100E200070087202031C152F162F1C2F7008F20277
:100E30007108031CF303F30201300310F10CF00CF2
:100E4000FF3E031D1D2F0130F502031D282F292F02
:100E50000C2F7308F1007208F0000800F501F6018C
:100E6000700871040319352F362F6D2FF701F70A1B
:100E7000442F01300310F00DF10DFF3E031D3A2FFA
:100E80000130F4007408F707F11F472F482F392F5E
:100E900001300310F50DF60DFF3E031D492F7108BB
:100EA0007302031D552F70087202031C582F592F0F
:100EB000602F7008F2027108031CF303F30275142B
:100EC00001300310F10CF00CFF3E031D612F0130C7
:100ED000F702031D6C2F6D2F482F7608F10075085F
:100EE000F00008007B0883120313C0007A08BF00DB
:100EF0007D08F1007C08F0004008F3003F08F20094
:100F00000A128A112E270A128A11710883120313FA
:100F1000C0007008BF000130F8070318F90A00305C
:100F2000F9073F084004031D962F972F782F780864
:100F300084008317791C831380010130F80200308C
:100F4000031CF903F9027D08F1007C08F0007B081E
:100F5000F3007A08F2000A128A11F4260A128A11A2
:100F6000700883120313BE003E08C1007D08F10023
:100F70007C08F0007B08F3007A08F2000A128A115C
:100F80002E270A128A117108FB007008FA000A3035
:100F9000831203134102031CCE2FCF2FD32F073010
:100FA000BE003E08C1073030BE003E08C107410800
:100FB000BE00780884008317791C83133E088000E4
:100FC0000130F8020030031CF903F9027A087B04AF
:100FD000031DEB2FEC2FA32F0130F8070318F90A9C
:100FE0000030F90708008313203084003E300A12D5
:100FF0008A1178260A128A1183010A128A11A52EF3
:04400E00C4E0FFFF0C
:00000001FF
